:020000040800F2
:1000000000050020551C0008751C0008771C00081E
:1000100000000000000000000000000000000000E0
:10002000000000000000000000000000791C000833
:1000300000000000000000007B1C00087D1C000880
:10004000930E00080000000037140008B3140008E5
:10005000FF1A0008031C00080F1C00089D1C000864
:10006000000000009F1C0008A11C0008A31C000841
:10007000A51C0008A71C0008A91C0008000000001F
:10008000AB1C0008AD1C0008AF1C0008B11C000828
:10009000B31C0008B51C0008B71C0008B91C0008F8
:1000A000BB1C0008BD1C0008BF1C0008C11C0008C8
:1000B000C31C0008C51C000800000000C71C000885
:1000C00011B581B0254C00220821200000F080FBF2
:1000D0006423012201A9224800F00EFC012208211C
:1000E000200000F075FB13BD1CB56946020A4A707A
:1000F00008701B4C64230122491C200000F0FCFB0B
:10010000642301226946200000F0F6FB13BD01B50F
:10011000642301226946124800F0EEFB01BDF8B5E8
:1001200004000F0015001E002A20FFF7C9FF200061
:10013000FFF7DAFF2800FFF7D7FF2B20FFF7C0FFFC
:100140003800FFF7D1FF3000FFF7CEFFF1BD0122ED
:100150002021200000F03CFB10BD000000040048FE
:100160001000002010B5014C02E000BF0004004860
:1001700000222021200000F02BFB00221021200073
:1001800000F026FB642000F0A7FD012210212000D2
:1001900000F01EFB642000F09FFDEF20FFF790FFB2
:1001A000EB20FFF78DFF1420FFF7B1FFFE20FFF7D4
:1001B00087FFEF20FFF784FFEB20FFF781FF14207C
:1001C000FFF7A5FF8420FFF77BFF4020FFF79FFF8D
:1001D0008520FFF775FFFF20FFF799FF8620FFF7C7
:1001E0006FFFFF20FFF793FF8720FFF769FFFF20D6
:1001F000FFF78DFF8820FFF763FF0A20FFF787FFD7
:100200008920FFF75DFF2120FFF781FF8A20FFF79C
:1002100057FF0020FFF77BFF8B20FFF751FF802067
:10022000FFF775FF8C20FFF74BFF0120FFF76FFFF3
:100230008D20FFF745FF0120FFF769FF8E20FFF7B4
:100240003FFFFF20FFF763FF8F20FFF739FFFF20FD
:10025000FFF75DFFB620FFF733FF0020FFF757FFE2
:100260002020FFF754FF3620FFF72AFF0820FFF772
:100270004EFF3A20FFF724FF0520FFF748FF9020AC
:10028000FFF71EFF0820FFF742FF0820FFF73FFFA0
:100290000820FFF73CFF0820FFF739FFBD20FFF7DC
:1002A0000FFF0620FFF733FFBC20FFF709FF0020F8
:1002B000FFF72DFFFF20FFF703FF6020FFF727FF69
:1002C0000120FFF724FF0420FFF721FFC320FFF7E1
:1002D000F7FE1320FFF71BFFC420FFF7F1FE1320EA
:1002E000FFF715FFC920FFF7EBFE2220FFF70FFFF6
:1002F000BE20FFF7E5FE1120FFF709FFE120FFF721
:10030000DFFE1020FFF703FF0E20FFF700FFDF20C6
:10031000FFF7D6FE2120FFF7FAFE0C20FFF7F7FECD
:100320000220FFF7F4FEF020FFF7CAFE4520FFF79A
:10033000EEFE0920FFF7EBFE2620FFF7E8FE2A205D
:10034000FFF7E5FE0820FFF7E2FE0820FFF7DFFEDB
:10035000F120FFF7B5FE4320FFF7D9FE7020FFF72D
:10036000D6FE7220FFF7D3FE3620FFF7D0FE3720EF
:10037000FFF7CDFE6F20FFF7CAFEF220FFF7A0FEC9
:100380004520FFF7C4FE0920FFF7C1FE0820FFF754
:10039000BEFE0820FFF7BBFE2620FFF7B8FE2A208E
:1003A000FFF7B5FEF320FFF78BFE4320FFF7AFFE0C
:1003B0007020FFF7ACFE7220FFF7A9FE3620FFF792
:1003C000A6FE3720FFF7A3FE6F20FFF7A0FEED206B
:1003D000FFF776FE1B20FFF79AFE0B20FFF797FE34
:1003E000AE20FFF76DFE7720FFF791FECD20FFF7DF
:1003F00067FE6320FFF78BFE7020FFF761FE07208A
:10040000FFF785FE0720FFF782FE0420FFF77FFE3F
:100410000E20FFF77CFE0F20FFF779FE0920FFF783
:1004200076FE0720FFF773FE0820FFF770FE03201B
:10043000FFF76DFEE820FFF743FE3420FFF767FE6D
:100440006220FFF73DFE1820FFF761FE0D20FFF749
:100450005EFE7120FFF75BFEED20FFF758FE702077
:10046000FFF755FE7020FFF752FE1820FFF74FFEF2
:100470000F20FFF74CFE7120FFF749FEEF20FFF73A
:1004800046FE7020FFF743FE7020FFF740FE63201A
:10049000FFF716FE1820FFF73AFE1120FFF737FE90
:1004A0007120FFF734FEF120FFF731FE7020FFF7D7
:1004B0002EFE7020FFF72BFE1820FFF728FE1320DA
:1004C000FFF725FE7120FFF722FEF320FFF71FFE46
:1004D0007020FFF71CFE7020FFF719FE6420FFF765
:1004E000EFFD2820FFF713FE2920FFF710FEF12073
:1004F000FFF70DFE0120FFF70AFEF120FFF707FED0
:100500000020FFF704FE0720FFF701FE6620FFF73B
:10051000D7FD3C20FFF7FBFD0020FFF7F8FDCD20C5
:10052000FFF7F5FD6720FFF7F2FD4520FFF7EFFD30
:100530004520FFF7ECFD1020FFF7E9FD0020FFF755
:10054000E6FD0020FFF7E3FD0020FFF7E0FD672058
:10055000FFF7B6FD0020FFF7DAFD3C20FFF7D7FDDF
:100560000020FFF7D4FD0020FFF7D1FD0020FFF7AA
:10057000CEFD0120FFF7CBFD5420FFF7C8FD102072
:10058000FFF7C5FD3220FFF7C2FD9820FFF7BFFD42
:100590007420FFF795FD1020FFF7B9FD8520FFF7C8
:1005A000B6FD8020FFF7B3FD0020FFF7B0FD00206F
:1005B000FFF7ADFD4E20FFF7AAFD0020FFF7A7FDD6
:1005C0009820FFF77DFD3E20FFF7A1FD0720FFF7F4
:1005D0009EFD3520FFF774FD2120FFF771FD1120EE
:1005E000FFF76EFD782000F077FB2920FFF768FD0C
:1005F000142000F071FBAAE570B50500002220214F
:100600000D4800F0E5F8EF23EF2200210020FFF76E
:1006100086FD2C20FFF754FDF024F0262800FFF77C
:1006200063FD761EFAD1641EF7D101222021024813
:1006300000F0CEF870BD000000040048FFB50022B5
:100640000F2302932CE0052402E0644DA842FAD166
:100650006D462D78AC403443019D2C60604CA668FB
:10066000DC4326404D68ED0200D51E435C4DAE6074
:10067000EE6826404F68BF0200D51E43EE606E68EC
:1006800026404F68BF0300D51E436E602E6834407D
:100690004E68F60302D526001C0034432C60521C21
:1006A0000B681C00D44000D191E001249440234009
:1006B000F5D055000327AF40FE4301964E68B707BB
:1006C000BF0F012F03D0B607B60F022E0ED18768D9
:1006D000019E3E40CF68AF40374387604668A643DF
:1006E0004C68E706FF0F97403743476094006E461B
:1006F00074700C79A407A40F032C26D0C468019E43
:1007000026408C68AC403443C4600C79A407A40F25
:10071000022C1AD1D408A4000419266A03966E4646
:1007200077781C263E406F463E70039EB446029F7B
:100730006E463678B7406646BE43B4460F696E468D
:100740003678B74066463743276207680324019E20
:100750003E404F682740BC462F006546BD403543AC
:1007600005604D6826042E4099D001251D4E36683F
:100770002E431C4F3E603E4636682E400196019E39
:10078000194E9708BF00F6190196019E3668039628
:100790006E4677780C263E406F463E70039EB44608
:1007A000029F6E463678B7406646BE439027FF05E7
:1007B000B84201D100244BE70C4FB84201D10124CB
:1007C00046E70B4DA84200D03FE7022440E7FFBDBB
:1007D000002A01D08161704781627047000C004897
:1007E00000040140181002400800014000040048C5
:1007F00000080048F8B5040001D10120F2BD8227AD
:100800007F000025606A002804D16068B84203D0E8
:10081000E56101E025616561A56226005C367078BE
:10082000002803D13570200000F07FFA022070709C
:1008300020680168402291430160E368E022D20011
:10084000F0200001934203D90021834204D104E047
:1008500080214901934200D0A562012263681F40B4
:10086000BC46A76884231B023B4067463B439C462B
:10087000277C02231F4063461F43636913403B43A9
:100880009C46A76953021F4063461F43BC46277F0F
:1008900038233B4067463B439C462023E75C80234C
:1008A0001F4063461F43BC46A36A57033B4067464D
:1008B0003B4327683B60A3691F0C04231F40BC46D1
:1008C0002423E35C10273B4067463B439C4634238C
:1008D000E75C08231F4063461F43E3681840384322
:1008E0000143206841602068C169754B0B40C361BA
:1008F000756072700020F2BDFCB583B004000E007C
:1009000000274430007E012801D10220D6E01500E6
:10091000012021004431087600F084FA029028007A
:1009200021004431497E012901D00227C1E0002E77
:1009300000D0290000D1B8E00321220044325176D2
:10094000002122004432D161A663A587E587216496
:100950004422A15222004432518022004432D1600C
:10096000220044329160A16880221202914209D192
:1009700021680A6840239A430A6021680A681B02BA
:1009800013430B60216840220B68134002D10B68AF
:100990001A430A6061680022D2430192120C6B462E
:1009A0001A80049DE268474B9A4234D3002901D053
:1009B00001280BD1A06B00882168C860A06B801C47
:1009C000A063E08F694609884018E087029E0AE02C
:1009D000A16B0988C160A06B801CA063E08F694691
:1009E00009884018E087E08F002844D0206881689B
:1009F0008907EDD400F016FA801BA84208D30198AD
:100A00008542F0D00327012021004431487650E090
:100A1000002DE8D1F6E7002901D001280BD1A06B09
:100A2000007821680873A06B401CA063E08F6946C2
:100A300009884018E087029E0AE0A16B09780173DB
:100A4000A06B401CA063E08F694609884018E087CE
:100A5000E08F00280FD0206881688907EDD400F06E
:100A6000E1F9801BA84203D301988542CAD1EFE780
:100A7000002DEDD1C6E729003200200000F006F974
:100A8000002803D0202021004431C861A06800283C
:100A900006D100902068C16800918068009000989D
:100AA00020004430C169002901D0012701E0012163
:100AB00041760020210044310876380005B0F0BDB1
:100AC000FFF7FFFF01070000FEB582B006000A9C99
:100AD0001D4600F0A7F9281A071900F0A3F9694983
:100AE00009684901090D794300910024012501900D
:100AF00006E00098002800D100270098401E0090D2
:100B000030688068029901400298814201D1012039
:100B100000E000206946097B884235D00498002116
:100B2000C9438842ECD000F07DF90199401AB842DF
:100B300001D2002FDDD130684168E022914341604D
:100B400070688221490088420BD1B068E90388426D
:100B500002D04909884204D130680168402291439B
:100B600001606803B16A814208D131680A68464B66
:100B700013400B6031680A681043086030005C3035
:100B800045700470032000E0002005B0F0BDFCB506
:100B900085B007000E000C9D0024002069460870F7
:100BA0000699009100F03EF90099081A401900904A
:100BB00000F038F939680C31009A324B1B68232554
:100BC0006B431B0D5A4301923D000296059F009E08
:100BD0000490039106E00198002800D100260198B6
:100BE000401E01902868806802990140B94245D0B2
:100BF0000298C021C900884207D1002F05D103986F
:100C00000078694608706846007806980021C94354
:100C10008842E7D000F006F90499401AB04201D2A8
:100C2000002ED8D128684168E0229143416068686D
:100C30008221490088420CD1A8688021090288429B
:100C400002D04909884204D12868016840229143B2
:100C5000016080208001A96A814208D129680A6860
:100C6000094B13400B6029680A681043086028008C
:100C70005C30012141700470032000E0002007B0C7
:100C8000F0BD00000C000020FFDFFFFFF8B50400FE
:100C90000F001600202500963B000022C0214901CC
:100CA000FFF775FF002812D100963B00002280213B
:100CB0002000FFF709FF002809D100963B00002221
:100CC000C021C9002000FFF762FF002803D0206E7A
:100CD000054325660320F2BD38B5050000F0A2F8F3
:100CE00004000020C043854202D0044800782D183B
:100CF00000F098F8001BA842FAD331BD0000002094
:100D000081B0012041490A6802430A600A68104024
:100D100000900098802040054A6802434A60496874
:100D200008400090009801B0704770B586B004008C
:100D300014220021684600F07BF82068344988427C
:100D400033D13448090C82680A43826082681140BA
:100D5000059105998021090302680A43026002682F
:100D60001140059105998021C90202680A43026079
:100D700000680140059105980C200090022601961C
:100D8000002402940325039501200490694622481B
:100D9000FFF754FC70020090019602940395052021
:100DA000049069461D48FFF749FC06B070BD10B5B8
:100DB00086B004001422002101A800F039F8206850
:100DC000174988421FD11349802080028A68024354
:100DD0008A608A6802400092009A0A6802430A60A8
:100DE00009680840009000980C20019002200290B1
:100DF00000200390032004900120059001A9902079
:100E0000C005FFF71BFC06B010BD00001810024023
:100E10000038004014100240000800480004004858
:100E20000044004001484068704700BF00000020B7
:100E300010B50400080011000200200000F002F8C4
:100E4000200010BD1206130A1A43130C1A4300BFE8
:100E5000094205D0830705D00270401C491EF9D114
:100E6000704700001300103906D330B41400150089
:100E700010393CC0FCD230BC490700D30CC000D5AF
:100E800004C0890002D30280801C002900D50270B2
:100E90007047FEE7FEB506001BD0B04C3078C007A7
:100EA00019D58027BF0260680C21014004290BD0AE
:100EB000780861680C220A40082A47D16168C0227C
:100EC00052020A40824241D12068074003D0706834
:100ED000002800D19FE1307880071FD5F827FF4315
:100EE00060680C2101400CD060680C210140082989
:100EF0005ED16068C0214902014080200002814229
:100F000056D12068800703D5F068012800D082E11F
:100F1000206807403069C0003843206030780007FF
:100F200077D50227F0690028606A63D00121014368
:100F30006162FFF777FF0500606A384069D1FFF70B
:100F400071FF401B0228F7D90320FEBD7368012BF7
:100F500009D0B349B34A002B09D0052B07D121682A
:100F600082000A43226021680843206005E020686F
:100F700002402260206801402160706800280BD088
:100F8000FFF750FF050020683840A4D1FFF74AFF63
:100F9000401B6528F7D3D7E7FFF744FF050020681B
:100FA000384098D0FFF73EFF401B6528F7D3CBE7CA
:100FB000F068002820680ED0012101432160FFF76E
:100FC00031FF050020688007A2D4FFF72BFF401BEC
:100FD0000228F7D9B8E7012188432060FFF722FFF4
:100FE00005002068800799D5FFF71CFF401B0228E9
:100FF000F7D9A9E7012188436062FFF713FF0500D5
:10100000606A384005D0FFF70DFF401B0228F7D972
:101010009AE704273068384062D000200190B80673
:10102000E169014008D1E1690143E161E1690840FA
:1010300000900098012001907B480068C00512D400
:1010400079480068A10D014377480160FFF7EAFE87
:10105000050075480068C00505D4FFF7E3FE401B96
:101060006528F6D370E7B068012808D0002801D1C0
:10107000206A09E00528206A06D138432062206AE8
:1010800001210143216205E0012188432062206A99
:10109000B8432062A4480090B06800280CD0FFF745
:1010A000C1FE0500206A800713D4FFF7BBFE401B7A
:1010B00000998842F6D347E7FFF7B4FE0500206A9F
:1010C000800706D5FFF7AEFE401B00998842F6D395
:1010D0003AE70198002803D0E06994490140E161B2
:1010E0003078C0061DD57069F825ED43012837D149
:1010F000606B07436763606B012101436163FFF726
:1011000091FE0700606B800705D4FFF78BFEC01BC4
:101110000228F7D918E7606B0540B069C000284382
:101120006063306A002878D061680C220A40082A7F
:101130005CD08027BF048F490228206848D1014035
:101140002160FFF76FFE05002068384022D0FFF7CE
:1011500069FE401B0228F7D9F6E600BF00100240E6
:101160000421C9438842606B02D101406163D2E728
:1011700007436763606B012188436063FFF752FE9A
:101180000500606B8007CCD5FFF74CFE401B0228A2
:10119000F7D9D9E6E06A0F218843F16A0143E16299
:1011A000606875490140B06A0843716A0143616033
:1011B0002068790801432160FFF734FE05002068AC
:1011C00038402AD1FFF72EFE401B0228F7D9BBE694
:1011D00001402160FFF726FE0500206838401CD042
:1011E000FFF720FE401B0228F7D9ADE6012812D0F8
:1011F0006068E16AC02252020240736A9A420AD1D0
:101200000907090FF26A914205D1F02189030140D3
:10121000B06A814201D00120FEBD0020FEBD000069
:10122000FFFFFBFFFFFFFEFF00700040F8B504006A
:1012300060D0009151480068C107C90F00988142F1
:101240000CD24E48016801229143009A0A43026081
:101250000068C107C90F009881424BD12168484DF1
:10126000022001420CD0490704D56968E022D2006F
:101270000A436A606968F0229143A2680A436A607F
:1012800001272168394025D06168012902D12868E9
:10129000800303E0022903D12868800103D429E0F8
:1012A0002A68104026D06868032290430143696091
:1012B000FFF7B8FD060068680C21014060688000F7
:1012C000814207D0FFF7AEFD801B17498842F2D359
:1012D0000320F2BD2948009902683A4091420BD29E
:1012E0000168B943009A0A43026000680740009809
:1012F000874201D00120F2BD2078400705D56868FB
:1013000020490140E0680843686000F011F81E4978
:101310006A681206120F895CC8401C4908600020E8
:1013200000F04CF80020F2BD89130000FFFFFFEF32
:1013300030B517490C6817480C222240082A0CD1F6
:101340000F2200BF15A3A50C15405D5D17A3896A88
:101350000A40995C00F054F8684330BD0B480068BF
:101360000D490B4A12685205520F895CC8407047FC
:1013700000000000FFFFFFFEFF7FC2FF00200240D1
:1013800000100240FFF8FFFF441C00080C00002082
:101390000410024000127A00941C000802030405A5
:1013A000060708090A0B0C0D0E0F101001020304AA
:1013B00005060708090A0B0C0D0E0F1038B50500BD
:1013C0000D4CFA208000217800F01AF801000B483B
:1013D000006800F015F800F050F800280AD1042D3C
:1013E00008D2002229000020C04300F042F8A56086
:1013F000002032BD012032BD000000200C00002082
:10140000094214D088420FD30122030C01D10004F9
:101410001204002300185B418B4200D35B1A524137
:10142000F8D319001000704701000020704708B57C
:1014300000F03EF808BDFEE710B5C20018231340C7
:10144000FF249C40E2438907090E9940030004D41D
:1014500014489B089B00C01806E0134B0007000FC0
:10146000083880088000181803681A40114301608A
:1014700010BD80B5FFF7E0FF01BD10B5401E802113
:101480004904884201D3012010BD084C606003214B
:101490000020C043FFF7D0FF0020A060072121609B
:1014A00010BD000000E400E01CED00E010E000E0F2
:1014B0007047FEE738B5040014D025007835686819
:1014C000002803D128702000FFF771FC24206860F9
:1014D00020680168012291430160200000F020F89B
:1014E000012801D1012032BD606A002802D020000D
:1014F00000F0A0F820684168084A0A40426020686D
:101500008168082291438160FFE720680168012219
:101510000A430260200000F0F5F832BDFFF7FFFF3C
:10152000F8B506000025002430680168744A0A40B6
:10153000B168114332690A4371691143F2690A4380
:10154000026041689B4A0A40F1681143416081682A
:10155000994A0A40B1691143326A0A4382601022F3
:10156000964988420FD1964800688007800F13D0B3
:10157000022806D003D303280FD102220DE0042253
:101580000BE0082209E08F49884205D08E49884245
:1015900002D08E49884200D100228D4F8D48802193
:1015A0000902F3698B4221D1002A06D0022A18D001
:1015B000042A18D0082A04D037E0FFF7CFFE010034
:1015C00034D072684800510840181100FFF718FF26
:1015D00001001039B94228D207400007400F3843B4
:1015E0001BE00100EDE7FFF7A3FEE8E7002A06D0C5
:1015F000022A08D0042A13D0082A14D015E0FFF7D5
:10160000ADFE002812D071684A088018FFF7F8FE76
:1016100001001039B94208D280B23168C86005E0D3
:10162000FFF786FEEDE70800EDE70124B566F566F5
:101630002000F2BD2421415CC90706D501684A6833
:101640008B4B1340826A1A434A602421415C89070C
:1016500006D501684A68874B1340C26A1A434A603C
:101660002421415C490706D501684A68824B134032
:10167000026B1A434A602421415C090706D50168C0
:101680004A687E4B1340426B1A434A602421415CF6
:10169000C90606D501688A68794B1340826B1A43E4
:1016A0008A602421415C890606D501688A68134B4B
:1016B0001340C26B1A438A602421415C490611D54C
:1016C00001684A686F4B1340026C1A434A60026C0F
:1016D00080235B039A4205D14A686B4B1340426CEE
:1016E0001A434A602421415C090606D501684A680C
:1016F000664B1340806C184348607047FFDFFFFF64
:10170000F369FFEFFEB50600370078370024FC6070
:10171000FFF788FB0190202530680068000717D587
:101720005B480090019B00222904300000F054F82F
:1017300000280DD0EFF31080012181F3108831686B
:101740000A6880239A430A6080F310887D6026E04F
:1017500030680068400725D54D480090019B002265
:101760006904300000F038F800281BD0EFF3108037
:10177000012181F3108831680A685E4B13400B60C9
:1017800080F31088EFF31080012181F31088316815
:101790008A6801239A438A6080F31088BD603C7098
:1017A0000320FEBD7D60BD60346674663C70002021
:1017B000FEBD0000FFCFFFFFFFF4FFFF0038014038
:1017C000301002400044004000480040004C0040FF
:1017D000F0FF000000127A00FEB580273F010824C8
:1017E0000025060001916846027002933068C069C6
:1017F000019901400198814201D1012000E00020BF
:1018000069460978884231D108980021C943884245
:10181000ECD0FFF707FB0299401A0899814201D3E7
:10182000002901D10320FEBD306800684007DDD5E6
:101830003068C0692040306803D1C0693840D5D0D5
:1018400009E00462300000F025F830007830C46010
:1018500005700120FEBD30680762300000F01AF804
:10186000300078302021C1600570DBE70020FEBD2C
:10187000FFFFFDFFFFFFFEFFFFFFFBFFFF7FFFFFFF
:10188000FFEFFFFFFFFFEFFFFFFF9FFFFFFFF7FFF0
:10189000FFFFFF0110B5EFF31081012282F31088E2
:1018A00002681368134C1C40146081F31088EFF336
:1018B0001081012282F31088026893680124A343F7
:1018C000936081F31088016E01290BD1EFF3108131
:1018D000012282F31088026813681024A343136066
:1018E00081F31088202180228150002101668166C9
:1018F00010BD0000DFFEFFFFF8B586B000F000F974
:1019000000F0CCF8142200216846FFF791FA8021FC
:101910000903574802680A430260026811400591B2
:1019200005998021C90302680A43026002681140D8
:10193000059105998021890202680A4302600268C4
:101940001140059105998021C90202680A4302608D
:1019500000680140059105989027FF05002220218D
:101960003800FEF735FF434E00223A213000FEF7E3
:101970002FFF8020800100908420800301900024AC
:10198000029469463C48FEF759FE2020009001254C
:1019900001950294039469463800FEF74FFE3A2001
:1019A000009001950294039469463000FEF746FECC
:1019B000324D33482860822040006860AC60E020EF
:1019C000C000E8602C616C6180208000A861082064
:1019D000E8612C626C62AC620721E9622C63686387
:1019E0002800FEF707FF002801D000F086F8254800
:1019F000686696208001A866EC662C676C670C20F0
:101A0000A867EC6780202C50280084300460446074
:101A100028006430FFF74EFD002801D000F06DF87B
:101A2000FEF7A0FB012202213000FEF7D1FE164C8A
:101A30001648FEF7E1FD1648FEF7DEFD1548FEF7F5
:101A4000DBFDFF20D030FEF7D7FD1348FEF7D4FDB5
:101A50002000FEF7D1FDFC20C000FEF7CDFDF820F0
:101A60000002FEF7C9FD2000FEF7C6FDE0E700001A
:101A70001410024000040048000800481000002034
:101A80000038004000440040E0FF0000FFFF00007D
:101A9000122B00001F84000007FC000038B590B036
:101AA0003022002104A8FFF7C3F910220021684664
:101AB000FFF7BEF90224049401200790102008903B
:101AC0000C94C0020D9040010E9000250F9504A8C3
:101AD000FFF7E0F9002801D000F00FF80720009090
:101AE00001940295039501216846FFF79FFB0028AA
:101AF00001D000F002F811B030BD72B6FEE7FEE78B
:101B000080B50648016810220A4302600020FFF7F2
:101B100055FCFFF7F5F8002002BD00000020024050
:101B200070B40123002413E00168001D194202D0A3
:101B30004D466918491E0C60091D121F042AFAD26D
:101B40000D00960701D50C80AD1C1A4000D02C70FA
:101B50000268001D002AE7D170BC704730B4012232
:101B60000EE00368C31844680830144202D04D46A2
:101B70002C19641E1D6825601B1D241D091FF9D129
:101B80000168001D0029ECD130BC704710B5074931
:101B900079441831064C7C44163404E0081D0A6868
:101BA000891888470100A142F8D110BD0800000043
:101BB000280000006DFFFFFFEC0000001000002077
:101BC0000000000099FFFFFF10000000B8000000B7
:101BD000000000200000000000F00DF8002801D0F7
:101BE000FFF7D4FF00BF00BF002000BF00BFFFF71A
:101BF00083FE00F002F80120704780B500F002F883
:101C000001BDFEE70746384600F002F8FBE7FEE7B5
:101C100080B500BF00BF024A11001820ABBEFBE731
:101C2000260002000548014603B4684680F309888F
:101C300000BF00BF00BF00BFFFF7CEFFA5EDF5FE60
:101C400070470000000000000000000001020304D3
:101C5000060708090148804701480047411C000861
:101C6000251C0008024841680278891841607047C5
:101C700000000020FEE7FEE77047704780B5FFF7E1
:101C8000F1FF01BD010000000000000004000000A1
:101C900000127A000000000001020304FEE7FEE7E4
:101CA000FEE7FEE7FEE7FEE7FEE7FEE7FEE7FEE70C
:101CB000FEE7FEE7FEE7FEE7FEE7FEE7FEE7FEE7FC
:081CC000FEE7FEE7FEE7FEE788
:0400000508001C25AE
:00000001FF
